{
  "contractName": "DeliveryRequest",
  "abi": [
    {
      "constant": true,
      "inputs": [],
      "name": "code",
      "outputs": [
        {
          "name": "",
          "type": "uint256"
        }
      ],
      "payable": false,
      "stateMutability": "view",
      "type": "function"
    },
    {
      "constant": true,
      "inputs": [],
      "name": "deadline",
      "outputs": [
        {
          "name": "",
          "type": "uint256"
        }
      ],
      "payable": false,
      "stateMutability": "view",
      "type": "function"
    },
    {
      "constant": true,
      "inputs": [],
      "name": "assigned_to",
      "outputs": [
        {
          "name": "",
          "type": "address"
        }
      ],
      "payable": false,
      "stateMutability": "view",
      "type": "function"
    },
    {
      "constant": true,
      "inputs": [
        {
          "name": "",
          "type": "address"
        }
      ],
      "name": "bids",
      "outputs": [
        {
          "name": "",
          "type": "uint256"
        }
      ],
      "payable": false,
      "stateMutability": "view",
      "type": "function"
    },
    {
      "constant": true,
      "inputs": [],
      "name": "owner",
      "outputs": [
        {
          "name": "",
          "type": "address"
        }
      ],
      "payable": false,
      "stateMutability": "view",
      "type": "function"
    },
    {
      "constant": true,
      "inputs": [],
      "name": "bid_security",
      "outputs": [
        {
          "name": "",
          "type": "uint256"
        }
      ],
      "payable": false,
      "stateMutability": "view",
      "type": "function"
    },
    {
      "constant": true,
      "inputs": [],
      "name": "completed",
      "outputs": [
        {
          "name": "",
          "type": "bool"
        }
      ],
      "payable": false,
      "stateMutability": "view",
      "type": "function"
    },
    {
      "constant": true,
      "inputs": [],
      "name": "amount",
      "outputs": [
        {
          "name": "",
          "type": "uint256"
        }
      ],
      "payable": false,
      "stateMutability": "view",
      "type": "function"
    },
    {
      "constant": true,
      "inputs": [],
      "name": "id",
      "outputs": [
        {
          "name": "",
          "type": "uint256"
        }
      ],
      "payable": false,
      "stateMutability": "view",
      "type": "function"
    },
    {
      "constant": true,
      "inputs": [],
      "name": "destination",
      "outputs": [
        {
          "name": "",
          "type": "int256"
        }
      ],
      "payable": false,
      "stateMutability": "view",
      "type": "function"
    },
    {
      "constant": true,
      "inputs": [],
      "name": "request_security",
      "outputs": [
        {
          "name": "",
          "type": "uint256"
        }
      ],
      "payable": false,
      "stateMutability": "view",
      "type": "function"
    },
    {
      "constant": true,
      "inputs": [
        {
          "name": "",
          "type": "uint256"
        }
      ],
      "name": "bidders",
      "outputs": [
        {
          "name": "",
          "type": "address"
        }
      ],
      "payable": false,
      "stateMutability": "view",
      "type": "function"
    },
    {
      "constant": true,
      "inputs": [],
      "name": "message",
      "outputs": [
        {
          "name": "",
          "type": "bytes32"
        }
      ],
      "payable": false,
      "stateMutability": "view",
      "type": "function"
    },
    {
      "inputs": [
        {
          "name": "deadln",
          "type": "uint256"
        }
      ],
      "payable": false,
      "stateMutability": "nonpayable",
      "type": "constructor"
    },
    {
      "constant": false,
      "inputs": [
        {
          "name": "amt",
          "type": "uint256"
        },
        {
          "name": "str",
          "type": "int256"
        },
        {
          "name": "dst",
          "type": "int256"
        },
        {
          "name": "mssg",
          "type": "bytes32"
        }
      ],
      "name": "start",
      "outputs": [],
      "payable": true,
      "stateMutability": "payable",
      "type": "function"
    },
    {
      "constant": true,
      "inputs": [],
      "name": "start",
      "outputs": [
        {
          "name": "",
          "type": "int256"
        }
      ],
      "payable": false,
      "stateMutability": "view",
      "type": "function"
    },
    {
      "constant": false,
      "inputs": [],
      "name": "bid",
      "outputs": [],
      "payable": true,
      "stateMutability": "payable",
      "type": "function"
    },
    {
      "constant": false,
      "inputs": [
        {
          "name": "assignee",
          "type": "address"
        }
      ],
      "name": "assign",
      "outputs": [],
      "payable": false,
      "stateMutability": "nonpayable",
      "type": "function"
    },
    {
      "constant": false,
      "inputs": [],
      "name": "mark_complete",
      "outputs": [],
      "payable": false,
      "stateMutability": "nonpayable",
      "type": "function"
    },
    {
      "constant": false,
      "inputs": [],
      "name": "claim",
      "outputs": [],
      "payable": false,
      "stateMutability": "nonpayable",
      "type": "function"
    }
  ],
  "bytecode": "0x60606040526000600560006101000a81548160ff021916908315150217905550669536c708910000600c556618de76816d8000600d55341561004057600080fd5b604051602080610d9283398101604052808051906020019091905050804210151561006a57600080fd5b33600260006101000a81548173ffffffffffffffffffffffffffffffffffffffff021916908373ffffffffffffffffffffffffffffffffffffffff1602179055508060078190555050610cd0806100c26000396000f300606060405260043610610107576000357c0100000000000000000000000000000000000000000000000000000000900463ffffffff1680631998aeef1461010c57806324c12bf61461011657806329dcb0cf1461013f5780634ba57092146101685780634e71d92d146101bd57806362ea82db146101d257806385aba2751461021f57806387528f3c146102585780638da5cb5b1461028f5780639309c8a5146102e45780639d9a7fe91461030d578063aa8c217c1461033a578063af640d0f14610363578063b269681d1461038c578063be9a6555146103b5578063cd29265a146103de578063cff29dfd14610407578063d95d2b281461046a578063e21f37ce1461047f575b600080fd5b6101146104b0565b005b341561012157600080fd5b6101296106bc565b6040518082815260200191505060405180910390f35b341561014a57600080fd5b6101526106c2565b6040518082815260200191505060405180910390f35b341561017357600080fd5b61017b6106c8565b604051808273ffffffffffffffffffffffffffffffffffffffff1673ffffffffffffffffffffffffffffffffffffffff16815260200191505060405180910390f35b34156101c857600080fd5b6101d06106ee565b005b34156101dd57600080fd5b610209600480803573ffffffffffffffffffffffffffffffffffffffff1690602001909190505061085d565b6040518082815260200191505060405180910390f35b341561022a57600080fd5b610256600480803573ffffffffffffffffffffffffffffffffffffffff16906020019091905050610875565b005b61028d6004808035906020019091908035906020019091908035906020019091908035600019169060200190919050506109bc565b005b341561029a57600080fd5b6102a26109f5565b604051808273ffffffffffffffffffffffffffffffffffffffff1673ffffffffffffffffffffffffffffffffffffffff16815260200191505060405180910390f35b34156102ef57600080fd5b6102f7610a1b565b6040518082815260200191505060405180910390f35b341561031857600080fd5b610320610a21565b604051808215151515815260200191505060405180910390f35b341561034557600080fd5b61034d610a34565b6040518082815260200191505060405180910390f35b341561036e57600080fd5b610376610a3a565b6040518082815260200191505060405180910390f35b341561039757600080fd5b61039f610a40565b6040518082815260200191505060405180910390f35b34156103c057600080fd5b6103c8610a46565b6040518082815260200191505060405180910390f35b34156103e957600080fd5b6103f1610a4c565b6040518082815260200191505060405180910390f35b341561041257600080fd5b6104286004808035906020019091905050610a52565b604051808273ffffffffffffffffffffffffffffffffffffffff1673ffffffffffffffffffffffffffffffffffffffff16815260200191505060405180910390f35b341561047557600080fd5b61047d610a91565b005b341561048a57600080fd5b610492610c4d565b60405180826000191660001916815260200191505060405180910390f35b600754421015156104c057600080fd5b600c54600654013073ffffffffffffffffffffffffffffffffffffffff1631101515156104ec57600080fd5b600260009054906101000a900473ffffffffffffffffffffffffffffffffffffffff1673ffffffffffffffffffffffffffffffffffffffff163373ffffffffffffffffffffffffffffffffffffffff161415151561054957600080fd5b6000600960009054906101000a900473ffffffffffffffffffffffffffffffffffffffff1673ffffffffffffffffffffffffffffffffffffffff1614151561059057600080fd5b600560009054906101000a900460ff161515156105ac57600080fd5b600d54341415156105bc57600080fd5b6000600a60003373ffffffffffffffffffffffffffffffffffffffff1673ffffffffffffffffffffffffffffffffffffffff1681526020019081526020016000205414151561060a57600080fd5b34600a60003373ffffffffffffffffffffffffffffffffffffffff1673ffffffffffffffffffffffffffffffffffffffff16815260200190815260200160002060008282540192505081905550600b805480600101828161066b9190610c53565b9160005260206000209001600033909190916101000a81548173ffffffffffffffffffffffffffffffffffffffff021916908373ffffffffffffffffffffffffffffffffffffffff16021790555050565b60015481565b60075481565b600960009054906101000a900473ffffffffffffffffffffffffffffffffffffffff1681565b600754421115610778573373ffffffffffffffffffffffffffffffffffffffff166108fc600a60003373ffffffffffffffffffffffffffffffffffffffff1673ffffffffffffffffffffffffffffffffffffffff168152602001908152602001600020549081150290604051600060405180830381858888f19350505050151561077757600080fd5b5b600560009054906101000a900460ff16151561079057fe5b6000600a60003373ffffffffffffffffffffffffffffffffffffffff1673ffffffffffffffffffffffffffffffffffffffff16815260200190815260200160002054141515156107dc57fe5b3373ffffffffffffffffffffffffffffffffffffffff166108fc600a60003373ffffffffffffffffffffffffffffffffffffffff1673ffffffffffffffffffffffffffffffffffffffff168152602001908152602001600020549081150290604051600060405180830381858888f19350505050151561085b57600080fd5b565b600a6020528060005260406000206000915090505481565b600260009054906101000a900473ffffffffffffffffffffffffffffffffffffffff1673ffffffffffffffffffffffffffffffffffffffff163373ffffffffffffffffffffffffffffffffffffffff161415156108d157600080fd5b600c54600654013073ffffffffffffffffffffffffffffffffffffffff1631101515156108fd57600080fd5b6007544210151561090d57600080fd5b600560009054906101000a900460ff1615151561092957600080fd5b6000600a60008373ffffffffffffffffffffffffffffffffffffffff1673ffffffffffffffffffffffffffffffffffffffff168152602001908152602001600020541415151561097857600080fd5b80600960006101000a81548173ffffffffffffffffffffffffffffffffffffffff021916908373ffffffffffffffffffffffffffffffffffffffff16021790555050565b600c54840134101515156109cf57600080fd5b826003819055508160048190555083600681905550806008816000191690555050505050565b600260009054906101000a900473ffffffffffffffffffffffffffffffffffffffff1681565b600d5481565b600560009054906101000a900460ff1681565b60065481565b60005481565b60045481565b60035481565b600c5481565b600b81815481101515610a6157fe5b90600052602060002090016000915054906101000a900473ffffffffffffffffffffffffffffffffffffffff1681565b600260009054906101000a900473ffffffffffffffffffffffffffffffffffffffff1673ffffffffffffffffffffffffffffffffffffffff163373ffffffffffffffffffffffffffffffffffffffff16141515610aed57600080fd5b600c54600654013073ffffffffffffffffffffffffffffffffffffffff163110151515610b1957600080fd5b600560009054906101000a900460ff16151515610b3557600080fd5b6000600960009054906101000a900473ffffffffffffffffffffffffffffffffffffffff1673ffffffffffffffffffffffffffffffffffffffff1614151515610b7d57600080fd5b6001600560006101000a81548160ff021916908315150217905550600654600a6000600960009054906101000a900473ffffffffffffffffffffffffffffffffffffffff1673ffffffffffffffffffffffffffffffffffffffff1673ffffffffffffffffffffffffffffffffffffffff168152602001908152602001600020600082825401925050819055503373ffffffffffffffffffffffffffffffffffffffff166108fc600d549081150290604051600060405180830381858888f193505050501515610c4b57600080fd5b565b60085481565b815481835581811511610c7a57818360005260206000209182019101610c799190610c7f565b5b505050565b610ca191905b80821115610c9d576000816000905550600101610c85565b5090565b905600a165627a7a72305820b619b3d0c1aa15a2a1d2f4c6cc9b3b0ae3c03d0338a2bc395e7f35f8db6bca620029",
  "source": "pragma solidity ^0.4.0;\r\n\r\n\r\n// @title An O-LAP Delivery Request\r\ncontract DeliveryRequest {\r\n    \r\n    \r\n    // ------\r\n    \r\n    \r\n    uint256 public id;\r\n    uint public code;\r\n    \r\n    \r\n    // ------\r\n    address public owner;\r\n    int256 public start;\r\n    int256 public destination;\r\n    bool public completed = false;\r\n    uint public amount;\r\n    uint256 public deadline;\r\n    bytes32 public message;\r\n    address public assigned_to;\r\n    mapping(address => uint) public bids;\r\n    address[] public bidders;\r\n    uint public request_security = 0.042 ether;\r\n    uint public bid_security = 0.007 ether;\r\n    \r\n    \r\n    // ------\r\n    \r\n    function DeliveryRequest(uint256 deadln) public {\r\n        require(now < deadln);\r\n        owner = msg.sender;\r\n        deadline = deadln;\r\n    }\r\n    \r\n    \r\n    // ------\r\n\r\n\r\n    function start(uint amt, int256 str, int256 dst, bytes32 mssg) public payable {\r\n        require(msg.value >= amt+request_security);\r\n        start = str;\r\n        destination = dst;\r\n        amount = amt;\r\n        message = mssg;\r\n    }\r\n    \r\n    \r\n    function bid() public payable {\r\n        require(now < deadline);\r\n        require(this.balance >= amount+request_security);\r\n        require(msg.sender != owner);\r\n        require(assigned_to == 0);\r\n        require(!completed);\r\n        require(msg.value == bid_security);\r\n        require(bids[msg.sender] == 0);\r\n        bids[msg.sender] += msg.value;\r\n        bidders.push(msg.sender);\r\n    }\r\n\r\n    function assign(address assignee) public {\r\n        require(msg.sender == owner);\r\n        require(this.balance >= amount+request_security);\r\n        require(now < deadline);\r\n        require(!completed);\r\n        require(bids[assignee] != 0);\r\n        assigned_to = assignee;\r\n    }\r\n    \r\n    function mark_complete() public {\r\n        require(msg.sender == owner);\r\n        require(this.balance >= amount+request_security);\r\n        require(!completed);\r\n        require(assigned_to != 0);\r\n        completed = true;\r\n        bids[assigned_to] += amount;\r\n        msg.sender.transfer(bid_security);\r\n    }\r\n\r\n    function claim() public {\r\n        if(now > deadline) {\r\n            msg.sender.transfer(bids[msg.sender]);\r\n        }\r\n        assert(completed);\r\n        assert(bids[msg.sender] != 0);\r\n        msg.sender.transfer(bids[msg.sender]);\r\n    }\r\n\r\n    \r\n    \r\n}",
  "sourcePath": "G:\\00    CURRENT\\Node\\contracts\\contracts\\DeliveryRequest.sol",
  "compiler": {
    "name": "solc",
    "version": "0.4.19+commit.c4cbbb05.Emscripten.clang"
  },
  "schemaVersion": "1.0.1",
  "updatedAt": "2018-07-15T22:41:07.944Z"
}